:100000000C94EA000C9412010C9412010C9412014D
:100010000C9412010C9412010C9412010C94120114
:100020000C9412010C9492070C9474080C94E6083A
:100030000C9412010C9412010C9412010C941201F4
:100040000C9412010C9412010C9412010C941201E4
:100050000C9412010C9412010C9412010C942507BB
:100060000C9412010C9412010C9412010C941201C4
:100070000C9412010C9412010C9412010C941201B4
:100080000C9412010C9412010C9412010C941201A4
:100090000C9412010C9412010C9412010C94120194
:1000A0000C9412010C943E080C9412017A0C7D0CF5
:1000B0006C0C700C740C9E0C9E0C9E0C810C850CB0
:1000C000890C8F0C930C9E0C990C080B00020202F9
:1000D00001000904000001020200000524001001D3
:1000E0000524010101042402060524060001070578
:1000F000810310004009040100020A000000070506
:1001000002024000000705830240000004030904C6
:10011000426C696E6B696E6C61627300426C696EF1
:100120006B795461706500120100020000004050BC
:100130001D5E6000010102030112010002EF0201D5
:1001400040501D5E60000101020301000000002517
:100150000028002B002E00310000000000240027A2
:10016000002A002D00300000000000230026002996
:10017000002C002F000404040404030405020202FE
:100180000204030202020206060606060604040230
:100190000202040404080201104080401020408044
:1001A00040800802040180402010020110801020CD
:1001B0004040200000000200090F0000030401007D
:1001C0000C00000000000000000000000000000023
:1001D0000000E80F11241FBECFEFDAE0DEBFCDBF75
:1001E00011E0A0E0B1E0E0EDF1E202C005900D9277
:1001F000A634B107D9F728E0A6E4B1E001C01D920A
:10020000A331B207E1F710E0CAEED0E004C02197B5
:10021000FE010E94A410C93ED107C9F70E94080D33
:100220000C94E6100C94000040915301509154013D
:10023000209151013091520142175307B4F490912B
:10024000E8009570E1F39091E80092FD19C0809369
:10025000F100809153019091540101968F73992779
:10026000892B19F48EEF8093E800809153019091CF
:1002700054010196909354018093530181E00895B5
:1002800080E00895CF92DF92EF92FF920F931F9339
:10029000CF93DF936C017A018B01C0E0D0E0CE15E3
:1002A000DF0589F0D8016D918D01D601ED91FC91AA
:1002B0000190F081E02DC6010995892B11F47E0192
:1002C00002C02196ECCFC701DF91CF911F910F9112
:1002D000FF90EF90DF90CF900895CF93DF931F9220
:1002E000CDB7DEB76983DC01ED91FC910280F3812B
:1002F000E02D41E050E0BE016F5F7F4F09950F9008
:10030000DF91CF91089583E08093E9008091F2001E
:10031000882319F08AE38093E8000895FC0184851E
:10032000958597FD0BC09FB7F89482E08093E90014
:100330008091F2009FBF90E0019608959FB7F894D6
:1003400082E08093E9008091F2009FBF90E00895E1
:10035000EF92FF920F931F93CF93DF93EC018A8567
:100360009B85892B21F4888599859D878C8780E0E2
:1003700090E0288139818217930708F03DC02C85D1
:100380003D85F90154913196449131962491142F71
:10039000187FE22FE07E3E2F369536953695A0E207
:1003A0004A9FF00111240E2F032B220F220F220F40
:1003B000DC01AA0FBB1FA80FB91F1296A60FB71F0B
:1003C00030E0351781F07D01E2E0EE1AF108F70127
:1003D00010837D01F1E0EF1AF108F70100832C93FF
:1003E0003F5F1396EECF830F911D2C853D852D5FCA
:1003F0003F4F3D872C87BDCFDF91CF911F910F914C
:10040000FF90EF900895CF93DF93EC014A855B85D1
:1004100028813981429FC001439F900D529F900DCA
:1004200011249C01220F331F820F931F28853985C9
:10043000820F931F9D878C87DB01129680E090E0EE
:1004400060E070E02881398162177307D8F42C8549
:100450003D85FC013296E20FF31F4491FC01319679
:10046000E20FF31F5491F901E80FF91F2491FD01E8
:1004700032972083319650834C936F5F7F4F039662
:100480001396E0CFDF91CF910895EF92FF920F93F3
:100490001F93CF93DF93EC0190914B019F5F292F26
:1004A000277020934B0190FF02C090E801C090E0BC
:1004B00021FD9064247009F0906220E1290FFE0173
:1004C0003C967E018FE0E80EF11C00E011E06191A6
:1004D000662331F070E0C8010E944F106F5F01C0C9
:1004E00060E0DF0114976C93322F369F030E30E0EB
:1004F000311D1124CF010797311103C0EC0118827F
:1005000003C03150EC013883662311F061506C93C5
:10051000EE15FF05E1F6DF91CF911F910F91FF904E
:10052000EF90089580E991E008953F9A08950F9320
:100530001F93CF93DF93CDB7DEB762970FB6F894D2
:10054000DEBF0FBECDBF8C01F901DC011C968C9182
:100550007A8369835C834B835E834D8390819D871F
:1005600091819E8792819F87813029F4CE010196E7
:100570000E94450206C01C861B861A8619861886AC
:100580001F8283E0888B1A8A198AD801ED91FC9129
:100590000484F585E02DBE016F5F7F4FC80109958A
:1005A00062960FB6F894DEBF0FBECDBFDF91CF913C
:1005B0001F910F9108950F931F93CF93DF93CDB7A2
:1005C000DEB762970FB6F894DEBF0FBECDBF8C01C9
:1005D000F901DC011C968C917A8369835C834B83DF
:1005E0005E834D8390819D8791819E8792819F87B5
:1005F000813029F4CE0101960E94450206C01C8676
:100600001B861A86198618861F82188A1A8A198AE2
:10061000D801ED91FC910484F585E02DBE016F5F5A
:100620007F4FC801099562960FB6F894DEBF0FBEE2
:10063000CDBFDF91CF911F910F91089580E090E0A1
:100640000895FC01858596850895CF93DF9300D0AA
:1006500000D000D0CDB7DEB7AB011C821D821E8258
:10066000DC01ED91FC910190F081E02D19821A825C
:100670001B829E012F5F3F4FBE016C5F7F4F09952C
:1006800026960FB6F894DEBF0FBECDBFDF91CF9197
:1006900008958F929F92AF92BF92CF92DF92EF9286
:1006A000FF920F931F93CF93DF935C016B018A013D
:1006B00080910B01882309F459C080918707882312
:1006C00009F454C08091560180FF05C08091E0007C
:1006D00082608093E000E8018AEFF82E93E0E92E33
:1006E0002FE3822E3AE3932E2097C9F18FB7F89427
:1006F000E092E9009091E80095FF06C09091F20029
:10070000282D291B922F01C090E08FBF911106C0A8
:10071000FA94FF2059F10E94DA0CE6CF292F30E03D
:10072000C217D3070CF49C2F8FB7F894E092E9001E
:100730002091E80025FF11C0292F30E0C21BD30B08
:10074000F601915020F041914093F100FACFC20E92
:10075000D31E9091E80095FF13C08FBFC5CF5D9861
:1007600084E6809355011016110644F081E090E074
:10077000F5019383828380E090E005C0C80103C047
:100780009092E800EACFDF91CF911F910F91FF90F7
:10079000EF90DF90CF90BF90AF909F908F90089593
:1007A0000F931F93CF93DF931F92CDB7DEB78C01CA
:1007B000FC018485958597FF0EC0CE0101960E94AD
:1007C000B00C019719F4298130E002C02FEF3FEF00
:1007D000F80135872487F801848595850F90DF918E
:1007E000CF911F910F910895CF93DF931F92CDB7B3
:1007F000DEB7FC018485958597FD05C02FEF3FEF9F
:10080000358724870BC0CE0101960E94B00C01975A
:1008100019F4898190E002C08FEF9FEF0F90DF9174
:10082000CF910895CF92DF92EF92FF920F931F9393
:10083000CF93DF931F92CDB7DEB7182F062FE42E8C
:10084000862F880F8E5F99830E94140183E00E9497
:100850001401F12EC12E9981D92E8C2D8F1980175C
:1008600098F4F601E7FE02C0849101C080810E94E5
:100870001401182F80E00E9414018123FFEFCF1A8A
:10088000DF0A8111EACF01C081E00F90DF91CF91A3
:100890001F910F91FF90EF90DF90CF900895DF921E
:1008A000EF92FF920F931F93CF93DF93D82E8A017D
:1008B0007B01E40EF51EEB01CE15DF0571F0D7FECE
:1008C00003C0FE01849101C088810E941401219619
:1008D0008111F2CF8FEF9FEF01C0C801DF91CF915F
:1008E0001F910F91FF90EF90DF9008950F931F934A
:1008F000CF93DF931F92CDB7DEB782E0898342E4C6
:1009000050E06AEC70E080E80E944F040E94F40C12
:10091000DC0112960D911C9113970115110569F0D8
:10092000D801ED91FC910280F381E02DBE016F5F53
:100930007F4FC801099597FF07C089810F90DF910C
:10094000CF911F910F910895F80100851185E5CF92
:10095000615030F02091F100FC0120830196F8CF26
:10096000289884E68093860708953FB7F89480918D
:100970004D0190914E01A0914F01B091500126B5CB
:10098000A89B05C02F3F19F00196A11DB11D3FBFC7
:10099000BA2FA92F982F8827820F911DA11DB11D55
:1009A000BC01CD0142E0660F771F881F991F4A9551
:1009B000D1F708954F925F926F927F928F92AF928C
:1009C000BF92CF92DF92EF92FF921F93CF93DF936C
:1009D0003C01EB010E94B504F30127853089621BBD
:1009E000730B6A307105B0F3F894E881F98178B13E
:1009F000706888B18F7788B9CA849F812C2D291B94
:100A0000922F2F83BF844A805B80FD84EC84DE8438
:100A1000F394E394D3943E814885A9848B84118117
:100A2000D20120E0522F622F618111278894611139
:100A3000690F08F46FEF91958894F0FC160F1795E5
:100A40008894F1FC160F17958894F2FC160F1795F1
:100A50008894F3FC160F17958894F4FC160F1795DD
:100A60008894F5FC160F17958894F6FC160F1795C9
:100A70008894F7FC160F17958894262FF110212FD4
:100A80009C0D122F002C78B900C000C017FF88B948
:100A900060812227889400C0002C88B96111630FFF
:100AA00000C0002C78B900C000C016FF88B908F457
:100AB0006FEF3195889400C0002C88B9E0FC260FB8
:100AC00000C0002C78B900C000C015FF88B9279578
:100AD0008894E1FC260F00C0002C88B927958894E3
:100AE00000C0002C78B900C000C014FF88B9E2FC37
:100AF000260F2795889400C0002C88B9E3FC260FA8
:100B000000C0002C78B900C000C013FF88B9279539
:100B10008894E4FC260F00C0002C88B9279588949F
:100B200000C0002C78B900C000C012FF88B9E5FCF5
:100B3000260F2795889400C0002C88B9E6FC260F64
:100B400000C0002C78B900C000C011FF88B92795FB
:100B50008894E7FC260F00C0002C88B9279588945C
:100B600000C0002C78B900C000C010FF88B9162F53
:100B7000E110122F3A0D00C0002C88B900C000C04F
:100B8000002C78B900C000C017FF88B96281222705
:100B9000889400C0002C88B96111640F00C0002C3B
:100BA00078B900C000C016FF88B908F46FEFEB0DEC
:100BB000F11D00C0002C88B9D0FC260F00C0002C0D
:100BC00078B900C000C015FF88B927958894D1FC7A
:100BD000260F00C0002C88B92795889400C0002CEF
:100BE00078B900C000C014FF88B9D2FC260F279541
:100BF000889400C0002C88B9D3FC260F00C0002CBC
:100C000078B900C000C013FF88B927958894D4FC38
:100C1000260F00C0002C88B92795889400C0002CAE
:100C200078B900C000C012FF88B9D5FC260F2795FF
:100C3000889400C0002C88B9D6FC260F00C0002C78
:100C400078B900C000C011FF88B927958894D7FCF7
:100C5000260F00C0002C88B92795889400C0002C6E
:100C600078B900C000C010FF88B9162FD110122F1C
:100C7000419500C0002C88B9480D00C000C078B96B
:100C800000C000C017FF88B961812227889400C086
:100C9000002C88B96111690F00C0002C78B900C020
:100CA00000C016FF88B908F46FEF9195889400C0D2
:100CB000002C88B9F0FC260F00C0002C78B900C0C9
:100CC00000C015FF88B927958894F1FC260F00C055
:100CD000002C88B92795889400C0002C78B900C0F2
:100CE00000C014FF88B9F2FC260F2795889400C035
:100CF000002C88B9F3FC260F00C0002C78B900C086
:100D000000C013FF88B927958894F4FC260F00C013
:100D1000002C88B92795889400C0002C78B900C0B1
:100D200000C012FF88B9F5FC260F2795889400C0F3
:100D3000002C88B9F6FC260F00C0002C78B900C042
:100D400000C011FF88B927958894F7FC260F00C0D2
:100D5000002C88B92795889400C0002C78B900C071
:100D600000C010FF88B9162FF110122F9C0D00C083
:100D7000002C88B9119709F086CE20EE31E0D2011F
:100D80000E94AA10DC01CB01F4E0B695A7959795D7
:100D90008795FA95D1F720E030E0A9016AE9469EEF
:100DA000412D569E400D511D1124840F951FA11DEC
:100DB000B11D893E43E09407A105B10588F1885E25
:100DC0009340A109B10942E0B695A79597958795FB
:100DD0004A95D1F747E0849F212D949F200D311D26
:100DE000112460914A0170E0860F971F820F931FB4
:100DF000409188075091890760918A0770918B070D
:100E0000292F3327420F531F611D711D40938807FF
:100E10005093890760938A0770938B0780934A01E8
:100E200078940E94B504F301708B6787DF91CF91AE
:100E30001F91FF90EF90DF90CF90BF90AF908F9079
:100E40007F906F905F904F9008951F920F920FB612
:100E50000F9211242F933F938F939F93AF93BF9340
:100E60008091880790918907A0918A07B0918B079C
:100E700030914C0123E0230F2D3720F40196A11D62
:100E8000B11D05C026E8230F0296A11DB11D2093B8
:100E90004C018093880790938907A0938A07B093A9
:100EA0008B0780914D0190914E01A0914F01B0911F
:100EB00050010196A11DB11D80934D0190934E01EB
:100EC000A0934F01B0935001BF91AF919F918F912B
:100ED0003F912F910F900FBE0F901F9018950C947B
:100EE000D810CF93DF931F92CDB7DEB7682F67700E
:100EF0006093630183E090E069830E94D010698170
:100F0000861721F083E090E00E946F07E091630173
:100F1000F0E0E85AFE4F80818093DE070F90DF916A
:100F2000CF9108951F920F920FB60F9211242F9315
:100F30003F934F935F936F937F938F939F93AF9361
:100F4000BF93EF93FF931D9B03C081E080936401E7
:100F50001E991DC08091470181111DC081E08093C1
:100F6000470180916301809346018F5F0E94710762
:100F700086E08093C1001092BF001092BE0084E012
:100F800080937200109249011092480104C010929F
:100F9000470110927200FF91EF91BF91AF919F9125
:100FA0008F917F916F915F914F913F912F910F9012
:100FB0000FBE0F901F901895CF93C82F60916201BC
:100FC0000E942F109093570182E090E00E94D01071
:100FD0008C1729F06C2F82E090E00E946F078091BF
:100FE000570127E0829FC001112485579049FC01D9
:100FF0002491319665917491FC013396A591B49139
:10100000FC01359685919491409160015091610168
:10101000B093EE07A093ED077093F4076093F30786
:10102000622F70E07093F2076093F1075093EC0722
:101030004093EB079093F0078093EF07222329F06A
:10104000213069F488EA91E002C083E092E0909355
:10105000FA078093F9071092FC071092FB07109291
:10106000F6071092F507CF910895809146010E94EE
:101070007107809157018F5F0C94DC071F920F92CC
:101080000FB60F9211242F933F934F935F936F935B
:101090007F938F939F93AF93BF93EF93FF93809131
:1010A000480190914901019690934901809348012C
:1010B000803C924031F40E94350810924901109210
:1010C0004801FF91EF91BF91AF919F918F917F91D7
:1010D0006F915F914F913F912F910F900FBE0F90A5
:1010E0001F9018950E94CB101F920F920FB60F926F
:1010F00011248F939F938091E1009091E100937F61
:101100009093E10083FF0FC01092E90091E090936B
:10111000EB001092EC0092E39093ED0010928707A1
:1011200098E09093F00082FF20C093E09093E90054
:101130009091F200992319F09AE39093E80090912E
:101140005501992339F09091550191509093550193
:10115000992389F190918607992339F09091860718
:10116000915090938607992341F184FF10C080919C
:10117000E2008E7E81608093E2008091E1008F7EAC
:101180008093E100809156018E7E806111C080FFC6
:1011900016C08091E2008E7E80618093E200809193
:1011A000E1008E7E8093E100809156018E7E816009
:1011B0008093560104C05D9ACDCF289AD6CF9F91D7
:1011C0008F910F900FBE0F901F9018951F920F9246
:1011D0000FB60F921124CF92DF92EF92FF920F93EE
:1011E0001F932F933F934F935F936F937F938F93AF
:1011F0009F93AF93BF93EF93FF93CF93DF93CDB7BD
:10120000DEB76C97DEBFCDBF1092E9008091E80099
:1012100083FFFAC168E0CE0145960E94A80482EFE0
:101220008093E8008D8987FF05C09091E80090FFCA
:10123000FCCF03C09EEF9093E800982F907609F0C2
:10124000C6C09E892F89188D91110CC0803829F451
:10125000809167018093F10002C01092F10010921A
:10126000F10047C1422F50E0512B913051F48111D0
:1012700040C14130510509F03CC1809167018D7F2B
:101280000BC0933061F4811134C14130510509F034
:1012900030C1809167018260809367012AC19530D7
:1012A00041F48091E80080FFFCCF20682093E300A8
:1012B00020C1963009F05FC0EB8CFC8C1092E900E5
:1012C0001092540110925301123091F51092520174
:1012D000109251010E94760499E0BE016F5F7F4F2A
:1012E000DB01E92F1D92EA95E9F799831A8391E0D2
:1012F0009E8390EA98879AEF9987209153013091C5
:101300005401275F3F4F3C832B838D831092E9006C
:101310001092540110925301F0925201E092510147
:1013200049E050E080E00E944F040E947604E1C052
:10133000F0925201E09251010E94F40CDC011296ED
:10134000ED90FC901397E114F10409F4C0C0D701AB
:10135000ED91FC910480F581E02DBE016B5E7F4F25
:10136000C7010995009719F00CF0C3C0C6C0F7017A
:10137000E084F184E8CF973009F4BFC0983021F4BD
:1013800081E08093F100B5C0993009F0B2C083705C
:1013900009F0B3C0EDE0F1E081E021E036E39081B7
:1013A000992361F08093E9002093EB009191909351
:1013B000EC003093ED008F5F873089F78EE78093E4
:1013C000EA001092EA008F898093870792C08B8D84
:1013D0009C8D1092E9001092540110925301909349
:1013E000520180935101898D811156C08E899D894A
:1013F000913A59F4813209F080C047E050E064E04E
:1014000071E080E00E944F0474C0913209F075C011
:10141000833289F4888D90E0982F88272F89822B3A
:10142000A0E0B0E08093000190930101A09302013D
:10143000B09303015EC0803269F48091E80082FFBE
:10144000FCCF67E084E091E00E94A8048BEF8093DA
:10145000E80006C0823209F04CC08F8980930B01EE
:1014600080916601882319F0EEEFFAE002C0E0E017
:10147000F8E08091040190910501A0910601B091DE
:101480000701803B9440A105B10509F088C0809117
:101490000B0180FFA0C083C00E94F40CDC011296F7
:1014A0000D911C9113970115110539F1D801ED919A
:1014B000FC910190F081E02DBE016B5E7F4FC80171
:1014C0000995811116C0F80100851185ECCF113006
:1014D000C1F0133091F48F89882309F455C082300C
:1014E000E9F440E86AE08CE191E00E94120488236C
:1014F00021F08EEF8093E80087C081E28093EB00BB
:1015000083C08B8D9C8D089711F410936501809199
:101510006501811136C067E271E038C0813029F47D
:1015200040E86BE080E191E0E0CF833031F70E944A
:10153000F40CDC011296ED90FC9013978E010F5F76
:101540001F4F6801E114F10479F0D701ED91FC918E
:101550000680F781E02DB801C7010995080F111D1C
:10156000F701E084F184EECFD8011C92F6010190DE
:101570000020E9F73197BF016C197D0940E0C601F1
:10158000B4CF69E371E002C06CE071E061157105F0
:1015900009F4B3CFFB01449150E080E833CF0FB69C
:1015A000F894A89580916000886180936000109203
:1015B00060000FBEA895EE3F2AE0F20739F0809157
:1015C000FE0A9091FF0A9183808393CF1092FF0AC5
:1015D0001092FE0A8ECFEE3F8AE0F80731F080814C
:1015E00091819093FF0A8093FE0A87E797E79183A2
:1015F00080839BE088E10FB6F894A8958093600003
:101600000FBE9093600075CF6C960FB6F894DEBF56
:101610000FBECDBFDF91CF91FF91EF91BF91AF9101
:101620009F918F917F916F915F914F913F912F91FA
:101630001F910F91FF90EF90DF90CF900F900FBE12
:101640000F901F9018953F924F925F926F927F92EA
:101650008F929F92AF92BF92CF92DF92EF92FF92C2
:101660000F931F93CF93DF9300D01F92CDB7DEB7B8
:10167000F82E8091E1079091E207A091E307B091E5
:10168000E407892B8A2B8B2BE9F00E94B50400918B
:101690000F08109110082091110830911208DC01F8
:1016A000CB01801B910BA20BB30B0091E1071091B2
:1016B000E2072091E3073091E40780179107A20722
:1016C000B307B8F20E94B50460930F087093100836
:1016D0008093110890931208E091E907F091EA07CE
:1016E000309759F04091E5075091E6076091E70780
:1016F0007091E8078F2D0995F82E00918C071091B5
:101700008D074F2C512C612C712C0115110509F4FA
:1017100061C0D8011C96EC901C978091DF079091D6
:10172000E0078436910510F41C961C92D801ED91C7
:10173000FC91A280B38019821A821B82F11014C01E
:10174000F80145855685628173819E012F5F3F4F69
:10175000C801F5010995D8011C96EC921C971496C6
:101760000D911C911597D1CFF8013996CE010196B4
:101770006C0148019CE0890E911CDF0113973C909D
:101780002191332001F12223F1F0822F90E0A0E09B
:10179000B0E09C01AD012F5F3F4F4F4F5F4FC30142
:1017A000B2010E941F109B01AC01832D90E0A0E0CC
:1017B000B0E0BC01CD016F5F7F4F8F4F9F4F0E9404
:1017C0001F10D6018C93BFEFCB1ADB0AE815F90581
:1017D000A1F6B6CF80910D0890910E089C012F5F65
:1017E0003F4F30930E0820930D0849970CF447C0E3
:1017F0008FB7F894009188071091890720918A0784
:1018000030918B078FBFE0910D08F0910E0888EEA4
:1018100093E0E89FB001E99F700DF89F700D1124CF
:10182000072E000C880B990BC0900908D0900A086D
:10183000E0900B08F0900C08A90198012C193D09C3
:101840004E095F090E9463103093E0072093DF0781
:1018500010920E0810920D082FB7F8948091880707
:1018600090918907A0918A07B0918B072FBF809331
:10187000090890930A08A0930B08B0930C080F90E6
:101880000F900F90DF91CF911F910F91FF90EF90EC
:10189000DF90CF90BF90AF909F908F907F906F9090
:1018A0005F904F903F900895EEECF1E04491EFEAA5
:1018B000F1E09491E0E9F1E08491882309F44DC0CE
:1018C0004423E1F150E0FA013197EF30F105B0F532
:1018D000EA5AFF4F0C94A410209180002F7707C084
:1018E000209180002F7D03C020918000277F2093CE
:1018F000800024C024B52F7702C024B52F7D24BDDD
:101900001DC0209190002F7707C0209190002F7D5F
:1019100003C020919000277F209390000FC020915A
:10192000C0002F7703C02091C0002F7D2093C000FE
:1019300005C02091C200277F2093C200E82FF0E06D
:10194000EE0FFF1FE959FE4FA591B491EC91E923E9
:1019500081E090E021F480E0089580E090E0089537
:10196000FC0180918707811103C08FEF9FEF0895DD
:101970009FB7F89482E08093E9002091F20030E074
:101980001216130614F421E030E02115310559F048
:10199000289884E6809386078091F1008083809167
:1019A000F200882319F09FBFC90108958BE6809348
:1019B000E800F9CFCF92DF92EF92FF920E94B50438
:1019C0006B017C010E94B504DC01CB018C199D09DF
:1019D000AE09BF09883E9340A105B10598F3FF9079
:1019E000EF90DF90CF9008958091010881110DC094
:1019F00082E08093FD0784E08093FE071092000848
:101A00001092FF0781E0809301088DEF97E0089521
:101A1000CF93DF9300D01F92CDB7DEB7789484B513
:101A2000826084BD84B5816084BD85B5826085BDDA
:101A300085B5816085BD80916E00816080936E0068
:101A4000109281008091810082608093810080915A
:101A5000810081608093810080918000816080930B
:101A6000800080919100826080939100809191002C
:101A700081608093910080919000816080939000BC
:101A80008091C10084608093C1008091C100826018
:101A90008093C1008091C10081608093C1008091DA
:101AA000C30081608093C3008091C00082608093F6
:101AB000C0008091C20081608093C20080917A0052
:101AC000846080937A0080917A00826080937A00AB
:101AD00080917A00816080937A0080917A0080689A
:101AE00080937A0010928707109267011092560136
:101AF0008091D70081608093D70080EA8093D800DE
:101B000089B5806189BD89B5826089BD09B400FE4F
:101B1000FDCF0E94DA0C8091D8008F7C8061809389
:101B2000D8008091E000807F8093E0008091E10008
:101B30008E7E8093E1008DE08093E200559A209A9A
:101B4000EEEFFFE7859194918B3F9C4D19F481E076
:101B5000809366018FEF9FEF90939B0780939A0786
:101B6000EEE9F1E02491EFE7F1E084918823C9F0F8
:101B700090E0880F991FFC01E75AFE4F4591549160
:101B8000FC01E55BFE4FA591B4919FB7F894FA0173
:101B90003081822F809583238083EC912E2B2C9390
:101BA0009FBFD89A80916B00806480936B00809176
:101BB0006B00806280936B008091680081608093ED
:101BC00068001092800084E0809381008FEF86BBD4
:101BD000E0E8FFE6E491E0936201E1E8FFE6859149
:101BE00094919093610180936001A8E5B1E0E3E8EE
:101BF000FFE684918D933196EB382FE6F207C9F713
:101C000080916001909161018130924030F080E0DC
:101C100092E0909361018093600180E090E00E94E7
:101C2000D010823109F0BFC181E090E00E94D01055
:101C3000843309F0B8C182E090E00E94D010F82E01
:101C40008093570183E090E00E94D010809363015D
:101C50008F2D0E94DC07809163010E947107E09044
:101C60006001F090610180917B01811145C010926B
:101C70006D0110926C018FEF809370018093710160
:101C80008093720180937301809374018093750136
:101C900081E0809376011092780110927701109282
:101CA0006F0110926E0180918C0790918D07892BA6
:101CB00031F48AE691E090938D0780938C07E09150
:101CC0006801F0916901309721F08AE691E09583EF
:101CD00084838AE691E09093690180936801109271
:101CE0007A011092790187E291E090936B018093E1
:101CF0006A0181E080937B01E0916A01F0916B01C0
:101D00000480F581E02D8AE691E0099586E891E06E
:101D100090936D0180936C01F0927801E0927701CD
:101D2000E0916A01F0916B010284F385E02D8AE66F
:101D300091E00995009711F19C0140E050E060E4CA
:101D400072E48FE090E00E948510C090E107D0908F
:101D5000E207E090E307F090E407C901DA018C158F
:101D60009D05AE05BF0510F4D701C6018093E107BC
:101D70009093E207A093E307B093E4078AE691E02B
:101D800090938401809383018091DE070E94230B4E
:101D90007FE3A72EE0E0CE2EE0E0DE2EBB24B3945E
:101DA0002091EF073091F007A29EC001A39E900DF5
:101DB0001124809590959093850080938400B6BA05
:101DC0008EE897E00E948E01181619060CF052C09A
:101DD000D12C66E8E62E61E0F62E8EE897E00E94B0
:101DE0008E0118161906CCF78EE897E00E94F403CE
:101DF0008F3FF9F48091830190918401DC01ED9192
:101E0000FC910084F185E02D09958017910740F43D
:101E1000E0918301F0918401F382E28216870587C5
:101E20008091DE070E94230B90E000E010E0D92EA5
:101E3000D4CF91E09D0DE1E0F0E0EC0FFD1FED0D42
:101E4000F11D8083933099F70115B2E01B0710F064
:101E500090E0EDCF8B819A81F801EE0FFF1FE00F2C
:101E6000F11FEA57FE4F29812083918382830F5F00
:101E70001F4FEECF80916401882309F45CC0F89471
:101E80000E94540C99249394892B09F4912C4BE2D1
:101E9000E42E49E1F42E0E94540C21E0892B09F430
:101EA00020E0291511F0211105C0E1E0EE1AF1083A
:101EB000922E89F7E12CF12C0E94540C019799F491
:101EC000FFEFEF1AFF0A0000000000000000000012
:101ED000000000000000000025E5E21622E0F20606
:101EE00059F7E12CF12C7894E114F10439F41092B3
:101EF0006401809163010E9471071DC08AE6E81A9F
:101F000081E0F80AA8EDEA16AFEFFA064CF48091EA
:101F10008501811110C00E943508B09285010BC067
:101F200010928501B6E0EB16F1041CF0E092DE079A
:101F300002C01092DE072091FB073091FC07E09170
:101F4000F907F091FA07C9019595879520FF0AC016
:101F5000DC01A551B84F2D913C91E20FF31F019088
:101F6000F081E02D66E871E08551984F09958091E8
:101F7000DE070E94230B8091F5079091F6070196EA
:101F80006091ED077091EE070E943B109093F60769
:101F90008093F507B09BFECFC114D10409F400CFA4
:101FA0000E940000FDCE62E180E090E00E946F0799
:101FB00064E381E090E00E946F0760E082E090E0DF
:101FC0000E946F0760E083E090E00E946F0733CECD
:101FD000EEE8F7E01382128288EE93E0A0E0B0E032
:101FE00084839583A683B78389E391E0918380837B
:101FF0008FEF9FEF95878487EEEDF7E08083128265
:102000001182148613868FEF9FEFDC018783908700
:10201000A187B287EBEEF7E0138212821186108659
:1020200017821682118210821582148283E092E058
:1020300097878687118A108A138612860895DB0196
:102040008F939F930E94B110BF91AF91A29F800D7B
:10205000911DA39F900DB29F900D11240895991B7F
:1020600079E004C0991F961708F0961B881F7A958F
:10207000C9F780950895AA1BBB1B51E107C0AA1F91
:10208000BB1FA617B70710F0A61BB70B881F991F19
:102090005A95A9F780959095BC01CD01089597FBBD
:1020A000072E16F4009407D077FD09D00E943B104C
:1020B00007FC05D03EF4909581959F4F089570954B
:1020C00061957F4F0895A1E21A2EAA1BBB1BFD014B
:1020D0000DC0AA1FBB1FEE1FFF1FA217B307E40707
:1020E000F50720F0A21BB30BE40BF50B661F771F5F
:1020F000881F991F1A9469F760957095809590953F
:102100009B01AC01BD01CF010895052E97FB1EF484
:1021100000940E949C1057FD07D00E94631007FC9A
:1021200003D04EF40C949C10509540953095219519
:102130003F4F4F4F5F4F08959095809570956195F3
:102140007F4F8F4F9F4F0895EE0FFF1F0590F49123
:10215000E02D09940E94BC10B7FF0895821B930BD9
:1021600008950E94BC10A59F900DB49F900DA49F50
:10217000800D911D11240895A29FB001B39FC0014D
:10218000A39F700D811D1124911DB29F700D811DA3
:102190001124911D089581E090E0F8940C94E610CC
:1021A000F999FECF92BD81BDF89A992780B508951F
:1021B000262FF999FECF1FBA92BD81BD20BD0FB663
:1021C000F894FA9AF99A0FBE01960895F894FFCF01
:1021D000FFFFFFFF00E100000000000000C1808160
:1021E0000000000000000072087208720825032138
:1021F000031E0300000000DB029702950225032165
:10220000039202DA04000000006D0149038E01F41C
:0622100003D0038301006E
:00000001FF
